{
  "_format": "hh-sol-artifact-1",
  "contractName": "VIPCard",
  "sourceName": "contracts/core/VIPCard.sol",
  "abi": [
    {
      "inputs": [
        {
          "internalType": "string",
          "name": "name",
          "type": "string"
        },
        {
          "internalType": "string",
          "name": "symbol",
          "type": "string"
        },
        {
          "internalType": "address",
          "name": "_registryAddress",
          "type": "address"
        },
        {
          "internalType": "address",
          "name": "_erc6551AccountImplementation",
          "type": "address"
        }
      ],
      "stateMutability": "nonpayable",
      "type": "constructor"
    },
    {
      "anonymous": false,
      "inputs": [
        {
          "indexed": false,
          "internalType": "uint256",
          "name": "tokenId",
          "type": "uint256"
        },
        {
          "indexed": false,
          "internalType": "address",
          "name": "newAccount",
          "type": "address"
        }
      ],
      "name": "AccountCreated",
      "type": "event"
    },
    {
      "anonymous": false,
      "inputs": [
        {
          "indexed": true,
          "internalType": "address",
          "name": "owner",
          "type": "address"
        },
        {
          "indexed": true,
          "internalType": "address",
          "name": "approved",
          "type": "address"
        },
        {
          "indexed": true,
          "internalType": "uint256",
          "name": "tokenId",
          "type": "uint256"
        }
      ],
      "name": "Approval",
      "type": "event"
    },
    {
      "anonymous": false,
      "inputs": [
        {
          "indexed": true,
          "internalType": "address",
          "name": "owner",
          "type": "address"
        },
        {
          "indexed": true,
          "internalType": "address",
          "name": "operator",
          "type": "address"
        },
        {
          "indexed": false,
          "internalType": "bool",
          "name": "approved",
          "type": "bool"
        }
      ],
      "name": "ApprovalForAll",
      "type": "event"
    },
    {
      "anonymous": false,
      "inputs": [
        {
          "indexed": false,
          "internalType": "uint256",
          "name": "_fromTokenId",
          "type": "uint256"
        },
        {
          "indexed": false,
          "internalType": "uint256",
          "name": "_toTokenId",
          "type": "uint256"
        }
      ],
      "name": "BatchMetadataUpdate",
      "type": "event"
    },
    {
      "anonymous": false,
      "inputs": [
        {
          "indexed": false,
          "internalType": "uint256",
          "name": "_tokenId",
          "type": "uint256"
        }
      ],
      "name": "MetadataUpdate",
      "type": "event"
    },
    {
      "anonymous": false,
      "inputs": [
        {
          "indexed": true,
          "internalType": "address",
          "name": "previousOwner",
          "type": "address"
        },
        {
          "indexed": true,
          "internalType": "address",
          "name": "newOwner",
          "type": "address"
        }
      ],
      "name": "OwnershipTransferred",
      "type": "event"
    },
    {
      "anonymous": false,
      "inputs": [
        {
          "indexed": true,
          "internalType": "address",
          "name": "from",
          "type": "address"
        },
        {
          "indexed": true,
          "internalType": "address",
          "name": "to",
          "type": "address"
        },
        {
          "indexed": true,
          "internalType": "uint256",
          "name": "tokenId",
          "type": "uint256"
        }
      ],
      "name": "Transfer",
      "type": "event"
    },
    {
      "inputs": [
        {
          "internalType": "address",
          "name": "to",
          "type": "address"
        },
        {
          "internalType": "uint256",
          "name": "tokenId",
          "type": "uint256"
        }
      ],
      "name": "approve",
      "outputs": [],
      "stateMutability": "nonpayable",
      "type": "function"
    },
    {
      "inputs": [
        {
          "internalType": "address",
          "name": "owner",
          "type": "address"
        }
      ],
      "name": "balanceOf",
      "outputs": [
        {
          "internalType": "uint256",
          "name": "",
          "type": "uint256"
        }
      ],
      "stateMutability": "view",
      "type": "function"
    },
    {
      "inputs": [],
      "name": "erc6551AccountImplementation",
      "outputs": [
        {
          "internalType": "address",
          "name": "",
          "type": "address"
        }
      ],
      "stateMutability": "view",
      "type": "function"
    },
    {
      "inputs": [
        {
          "internalType": "uint256",
          "name": "tokenId",
          "type": "uint256"
        }
      ],
      "name": "getApproved",
      "outputs": [
        {
          "internalType": "address",
          "name": "",
          "type": "address"
        }
      ],
      "stateMutability": "view",
      "type": "function"
    },
    {
      "inputs": [
        {
          "internalType": "address",
          "name": "owner",
          "type": "address"
        },
        {
          "internalType": "address",
          "name": "operator",
          "type": "address"
        }
      ],
      "name": "isApprovedForAll",
      "outputs": [
        {
          "internalType": "bool",
          "name": "",
          "type": "bool"
        }
      ],
      "stateMutability": "view",
      "type": "function"
    },
    {
      "inputs": [
        {
          "internalType": "address",
          "name": "recipient",
          "type": "address"
        },
        {
          "internalType": "string",
          "name": "tokenURI",
          "type": "string"
        }
      ],
      "name": "mintVIPCard",
      "outputs": [],
      "stateMutability": "nonpayable",
      "type": "function"
    },
    {
      "inputs": [],
      "name": "name",
      "outputs": [
        {
          "internalType": "string",
          "name": "",
          "type": "string"
        }
      ],
      "stateMutability": "view",
      "type": "function"
    },
    {
      "inputs": [],
      "name": "owner",
      "outputs": [
        {
          "internalType": "address",
          "name": "",
          "type": "address"
        }
      ],
      "stateMutability": "view",
      "type": "function"
    },
    {
      "inputs": [
        {
          "internalType": "uint256",
          "name": "tokenId",
          "type": "uint256"
        }
      ],
      "name": "ownerOf",
      "outputs": [
        {
          "internalType": "address",
          "name": "",
          "type": "address"
        }
      ],
      "stateMutability": "view",
      "type": "function"
    },
    {
      "inputs": [],
      "name": "registry",
      "outputs": [
        {
          "internalType": "contract ERC6551Registry",
          "name": "",
          "type": "address"
        }
      ],
      "stateMutability": "view",
      "type": "function"
    },
    {
      "inputs": [],
      "name": "renounceOwnership",
      "outputs": [],
      "stateMutability": "nonpayable",
      "type": "function"
    },
    {
      "inputs": [
        {
          "internalType": "address",
          "name": "from",
          "type": "address"
        },
        {
          "internalType": "address",
          "name": "to",
          "type": "address"
        },
        {
          "internalType": "uint256",
          "name": "tokenId",
          "type": "uint256"
        }
      ],
      "name": "safeTransferFrom",
      "outputs": [],
      "stateMutability": "nonpayable",
      "type": "function"
    },
    {
      "inputs": [
        {
          "internalType": "address",
          "name": "from",
          "type": "address"
        },
        {
          "internalType": "address",
          "name": "to",
          "type": "address"
        },
        {
          "internalType": "uint256",
          "name": "tokenId",
          "type": "uint256"
        },
        {
          "internalType": "bytes",
          "name": "data",
          "type": "bytes"
        }
      ],
      "name": "safeTransferFrom",
      "outputs": [],
      "stateMutability": "nonpayable",
      "type": "function"
    },
    {
      "inputs": [
        {
          "internalType": "address",
          "name": "operator",
          "type": "address"
        },
        {
          "internalType": "bool",
          "name": "approved",
          "type": "bool"
        }
      ],
      "name": "setApprovalForAll",
      "outputs": [],
      "stateMutability": "nonpayable",
      "type": "function"
    },
    {
      "inputs": [
        {
          "internalType": "bytes4",
          "name": "interfaceId",
          "type": "bytes4"
        }
      ],
      "name": "supportsInterface",
      "outputs": [
        {
          "internalType": "bool",
          "name": "",
          "type": "bool"
        }
      ],
      "stateMutability": "view",
      "type": "function"
    },
    {
      "inputs": [],
      "name": "symbol",
      "outputs": [
        {
          "internalType": "string",
          "name": "",
          "type": "string"
        }
      ],
      "stateMutability": "view",
      "type": "function"
    },
    {
      "inputs": [
        {
          "internalType": "uint256",
          "name": "tokenId",
          "type": "uint256"
        }
      ],
      "name": "tokenURI",
      "outputs": [
        {
          "internalType": "string",
          "name": "",
          "type": "string"
        }
      ],
      "stateMutability": "view",
      "type": "function"
    },
    {
      "inputs": [
        {
          "internalType": "address",
          "name": "from",
          "type": "address"
        },
        {
          "internalType": "address",
          "name": "to",
          "type": "address"
        },
        {
          "internalType": "uint256",
          "name": "tokenId",
          "type": "uint256"
        }
      ],
      "name": "transferFrom",
      "outputs": [],
      "stateMutability": "nonpayable",
      "type": "function"
    },
    {
      "inputs": [
        {
          "internalType": "address",
          "name": "newOwner",
          "type": "address"
        }
      ],
      "name": "transferOwnership",
      "outputs": [],
      "stateMutability": "nonpayable",
      "type": "function"
    }
  ],
  "bytecode": "0x60806040523480156200001157600080fd5b5060405162003909380380620039098339818101604052810190620000379190620003d1565b838381600090816200004a9190620006cc565b5080600190816200005c9190620006cc565b5050506200007f620000736200010b60201b60201c565b6200011360201b60201c565b81600960006101000a81548173ffffffffffffffffffffffffffffffffffffffff021916908373ffffffffffffffffffffffffffffffffffffffff16021790555080600a60006101000a81548173ffffffffffffffffffffffffffffffffffffffff021916908373ffffffffffffffffffffffffffffffffffffffff16021790555050505050620007b3565b600033905090565b6000600760009054906101000a900473ffffffffffffffffffffffffffffffffffffffff16905081600760006101000a81548173ffffffffffffffffffffffffffffffffffffffff021916908373ffffffffffffffffffffffffffffffffffffffff1602179055508173ffffffffffffffffffffffffffffffffffffffff168173ffffffffffffffffffffffffffffffffffffffff167f8be0079c531659141344cd1fd0a4f28419497f9722a3daafe3b4186f6b6457e060405160405180910390a35050565b6000604051905090565b600080fd5b600080fd5b600080fd5b600080fd5b6000601f19601f8301169050919050565b7f4e487b7100000000000000000000000000000000000000000000000000000000600052604160045260246000fd5b6200024282620001f7565b810181811067ffffffffffffffff8211171562000264576200026362000208565b5b80604052505050565b600062000279620001d9565b905062000287828262000237565b919050565b600067ffffffffffffffff821115620002aa57620002a962000208565b5b620002b582620001f7565b9050602081019050919050565b60005b83811015620002e2578082015181840152602081019050620002c5565b60008484015250505050565b600062000305620002ff846200028c565b6200026d565b905082815260208101848484011115620003245762000323620001f2565b5b62000331848285620002c2565b509392505050565b600082601f830112620003515762000350620001ed565b5b815162000363848260208601620002ee565b91505092915050565b600073ffffffffffffffffffffffffffffffffffffffff82169050919050565b600062000399826200036c565b9050919050565b620003ab816200038c565b8114620003b757600080fd5b50565b600081519050620003cb81620003a0565b92915050565b60008060008060808587031215620003ee57620003ed620001e3565b5b600085015167ffffffffffffffff8111156200040f576200040e620001e8565b5b6200041d8782880162000339565b945050602085015167ffffffffffffffff811115620004415762000440620001e8565b5b6200044f8782880162000339565b93505060406200046287828801620003ba565b92505060606200047587828801620003ba565b91505092959194509250565b600081519050919050565b7f4e487b7100000000000000000000000000000000000000000000000000000000600052602260045260246000fd5b60006002820490506001821680620004d457607f821691505b602082108103620004ea57620004e96200048c565b5b50919050565b60008190508160005260206000209050919050565b60006020601f8301049050919050565b600082821b905092915050565b600060088302620005547fffffffffffffffffffffffffffffffffffffffffffffffffffffffffffffffff8262000515565b62000560868362000515565b95508019841693508086168417925050509392505050565b6000819050919050565b6000819050919050565b6000620005ad620005a7620005a18462000578565b62000582565b62000578565b9050919050565b6000819050919050565b620005c9836200058c565b620005e1620005d882620005b4565b84845462000522565b825550505050565b600090565b620005f8620005e9565b62000605818484620005be565b505050565b5b818110156200062d5762000621600082620005ee565b6001810190506200060b565b5050565b601f8211156200067c576200064681620004f0565b620006518462000505565b8101602085101562000661578190505b62000679620006708562000505565b8301826200060a565b50505b505050565b600082821c905092915050565b6000620006a16000198460080262000681565b1980831691505092915050565b6000620006bc83836200068e565b9150826002028217905092915050565b620006d78262000481565b67ffffffffffffffff811115620006f357620006f262000208565b5b620006ff8254620004bb565b6200070c82828562000631565b600060209050601f8311600181146200074457600084156200072f578287015190505b6200073b8582620006ae565b865550620007ab565b601f1984166200075486620004f0565b60005b828110156200077e5784890151825560018201915060208501945060208101905062000757565b868310156200079e57848901516200079a601f8916826200068e565b8355505b6001600288020188555050505b505050505050565b61314680620007c36000396000f3fe608060405234801561001057600080fd5b50600436106101215760003560e01c80637b103999116100ad578063a22cb46511610071578063a22cb465146102f6578063b88d4fde14610312578063c87b56dd1461032e578063e985e9c51461035e578063f2fde38b1461038e57610121565b80637b1039991461026257806389b99d68146102805780638da5cb5b1461029c578063918372de146102ba57806395d89b41146102d857610121565b806323b872dd116100f457806323b872dd146101c057806342842e0e146101dc5780636352211e146101f857806370a0823114610228578063715018a61461025857610121565b806301ffc9a71461012657806306fdde0314610156578063081812fc14610174578063095ea7b3146101a4575b600080fd5b610140600480360381019061013b9190611dd0565b6103aa565b60405161014d9190611e18565b60405180910390f35b61015e61040b565b60405161016b9190611ec3565b60405180910390f35b61018e60048036038101906101899190611f1b565b61049d565b60405161019b9190611f89565b60405180910390f35b6101be60048036038101906101b99190611fd0565b6104e3565b005b6101da60048036038101906101d59190612010565b6105fa565b005b6101f660048036038101906101f19190612010565b61065a565b005b610212600480360381019061020d9190611f1b565b61067a565b60405161021f9190611f89565b60405180910390f35b610242600480360381019061023d9190612063565b610700565b60405161024f919061209f565b60405180910390f35b6102606107b7565b005b61026a6107cb565b6040516102779190612119565b60405180910390f35b61029a60048036038101906102959190612269565b6107f1565b005b6102a4610936565b6040516102b19190611f89565b60405180910390f35b6102c2610960565b6040516102cf9190611f89565b60405180910390f35b6102e0610986565b6040516102ed9190611ec3565b60405180910390f35b610310600480360381019061030b91906122f1565b610a18565b005b61032c600480360381019061032791906123d2565b610a2e565b005b61034860048036038101906103439190611f1b565b610a90565b6040516103559190611ec3565b60405180910390f35b61037860048036038101906103739190612455565b610ba2565b6040516103859190611e18565b60405180910390f35b6103a860048036038101906103a39190612063565b610c36565b005b6000634906490660e01b7bffffffffffffffffffffffffffffffffffffffffffffffffffffffff1916827bffffffffffffffffffffffffffffffffffffffffffffffffffffffff19161480610404575061040382610cb9565b5b9050919050565b60606000805461041a906124c4565b80601f0160208091040260200160405190810160405280929190818152602001828054610446906124c4565b80156104935780601f1061046857610100808354040283529160200191610493565b820191906000526020600020905b81548152906001019060200180831161047657829003601f168201915b5050505050905090565b60006104a882610d9b565b6004600083815260200190815260200160002060009054906101000a900473ffffffffffffffffffffffffffffffffffffffff169050919050565b60006104ee8261067a565b90508073ffffffffffffffffffffffffffffffffffffffff168373ffffffffffffffffffffffffffffffffffffffff160361055e576040517f08c379a000000000000000000000000000000000000000000000000000000000815260040161055590612567565b60405180910390fd5b8073ffffffffffffffffffffffffffffffffffffffff1661057d610de6565b73ffffffffffffffffffffffffffffffffffffffff1614806105ac57506105ab816105a6610de6565b610ba2565b5b6105eb576040517f08c379a00000000000000000000000000000000000000000000000000000000081526004016105e2906125f9565b60405180910390fd5b6105f58383610dee565b505050565b61060b610605610de6565b82610ea7565b61064a576040517f08c379a00000000000000000000000000000000000000000000000000000000081526004016106419061268b565b60405180910390fd5b610655838383610f3c565b505050565b61067583838360405180602001604052806000815250610a2e565b505050565b60008061068683611235565b9050600073ffffffffffffffffffffffffffffffffffffffff168173ffffffffffffffffffffffffffffffffffffffff16036106f7576040517f08c379a00000000000000000000000000000000000000000000000000000000081526004016106ee906126f7565b60405180910390fd5b80915050919050565b60008073ffffffffffffffffffffffffffffffffffffffff168273ffffffffffffffffffffffffffffffffffffffff1603610770576040517f08c379a000000000000000000000000000000000000000000000000000000000815260040161076790612789565b60405180910390fd5b600360008373ffffffffffffffffffffffffffffffffffffffff1673ffffffffffffffffffffffffffffffffffffffff168152602001908152602001600020549050919050565b6107bf611272565b6107c960006112f0565b565b600960009054906101000a900473ffffffffffffffffffffffffffffffffffffffff1681565b6107f9611272565b61080360086113b6565b600061080f60086113cc565b905061081b83826113da565b61082581836115f7565b60008190506000600960009054906101000a900473ffffffffffffffffffffffffffffffffffffffff1673ffffffffffffffffffffffffffffffffffffffff1663da7323b3600a60009054906101000a900473ffffffffffffffffffffffffffffffffffffffff16463087876040518663ffffffff1660e01b81526004016108b19594939291906127e0565b6020604051808303816000875af11580156108d0573d6000803e3d6000fd5b505050506040513d601f19601f820116820180604052508101906108f4919061285b565b90507f487f75407abee1a719a204e683a93f0583efee10816d2651b112f8be571f7d328382604051610927929190612888565b60405180910390a15050505050565b6000600760009054906101000a900473ffffffffffffffffffffffffffffffffffffffff16905090565b600a60009054906101000a900473ffffffffffffffffffffffffffffffffffffffff1681565b606060018054610995906124c4565b80601f01602080910402602001604051908101604052809291908181526020018280546109c1906124c4565b8015610a0e5780601f106109e357610100808354040283529160200191610a0e565b820191906000526020600020905b8154815290600101906020018083116109f157829003601f168201915b5050505050905090565b610a2a610a23610de6565b838361169b565b5050565b610a3f610a39610de6565b83610ea7565b610a7e576040517f08c379a0000000000000000000000000000000000000000000000000000000008152600401610a759061268b565b60405180910390fd5b610a8a84848484611807565b50505050565b6060610a9b82610d9b565b6000600660008481526020019081526020016000208054610abb906124c4565b80601f0160208091040260200160405190810160405280929190818152602001828054610ae7906124c4565b8015610b345780601f10610b0957610100808354040283529160200191610b34565b820191906000526020600020905b815481529060010190602001808311610b1757829003601f168201915b505050505090506000610b45611863565b90506000815103610b5a578192505050610b9d565b600082511115610b8f578082604051602001610b779291906128ed565b60405160208183030381529060405292505050610b9d565b610b988461187a565b925050505b919050565b6000600560008473ffffffffffffffffffffffffffffffffffffffff1673ffffffffffffffffffffffffffffffffffffffff16815260200190815260200160002060008373ffffffffffffffffffffffffffffffffffffffff1673ffffffffffffffffffffffffffffffffffffffff16815260200190815260200160002060009054906101000a900460ff16905092915050565b610c3e611272565b600073ffffffffffffffffffffffffffffffffffffffff168173ffffffffffffffffffffffffffffffffffffffff1603610cad576040517f08c379a0000000000000000000000000000000000000000000000000000000008152600401610ca490612983565b60405180910390fd5b610cb6816112f0565b50565b60007f80ac58cd000000000000000000000000000000000000000000000000000000007bffffffffffffffffffffffffffffffffffffffffffffffffffffffff1916827bffffffffffffffffffffffffffffffffffffffffffffffffffffffff19161480610d8457507f5b5e139f000000000000000000000000000000000000000000000000000000007bffffffffffffffffffffffffffffffffffffffffffffffffffffffff1916827bffffffffffffffffffffffffffffffffffffffffffffffffffffffff1916145b80610d945750610d93826118e2565b5b9050919050565b610da48161194c565b610de3576040517f08c379a0000000000000000000000000000000000000000000000000000000008152600401610dda906126f7565b60405180910390fd5b50565b600033905090565b816004600083815260200190815260200160002060006101000a81548173ffffffffffffffffffffffffffffffffffffffff021916908373ffffffffffffffffffffffffffffffffffffffff160217905550808273ffffffffffffffffffffffffffffffffffffffff16610e618361067a565b73ffffffffffffffffffffffffffffffffffffffff167f8c5be1e5ebec7d5bd14f71427d1e84f3dd0314c0f7b2291e5b200ac8c7c3b92560405160405180910390a45050565b600080610eb38361067a565b90508073ffffffffffffffffffffffffffffffffffffffff168473ffffffffffffffffffffffffffffffffffffffff161480610ef55750610ef48185610ba2565b5b80610f3357508373ffffffffffffffffffffffffffffffffffffffff16610f1b8461049d565b73ffffffffffffffffffffffffffffffffffffffff16145b91505092915050565b8273ffffffffffffffffffffffffffffffffffffffff16610f5c8261067a565b73ffffffffffffffffffffffffffffffffffffffff1614610fb2576040517f08c379a0000000000000000000000000000000000000000000000000000000008152600401610fa990612a15565b60405180910390fd5b600073ffffffffffffffffffffffffffffffffffffffff168273ffffffffffffffffffffffffffffffffffffffff1603611021576040517f08c379a000000000000000000000000000000000000000000000000000000000815260040161101890612aa7565b60405180910390fd5b61102e838383600161198d565b8273ffffffffffffffffffffffffffffffffffffffff1661104e8261067a565b73ffffffffffffffffffffffffffffffffffffffff16146110a4576040517f08c379a000000000000000000000000000000000000000000000000000000000815260040161109b90612a15565b60405180910390fd5b6004600082815260200190815260200160002060006101000a81549073ffffffffffffffffffffffffffffffffffffffff02191690556001600360008573ffffffffffffffffffffffffffffffffffffffff1673ffffffffffffffffffffffffffffffffffffffff168152602001908152602001600020600082825403925050819055506001600360008473ffffffffffffffffffffffffffffffffffffffff1673ffffffffffffffffffffffffffffffffffffffff16815260200190815260200160002060008282540192505081905550816002600083815260200190815260200160002060006101000a81548173ffffffffffffffffffffffffffffffffffffffff021916908373ffffffffffffffffffffffffffffffffffffffff160217905550808273ffffffffffffffffffffffffffffffffffffffff168473ffffffffffffffffffffffffffffffffffffffff167fddf252ad1be2c89b69c2b068fc378daa952ba7f163c4a11628f55a4df523b3ef60405160405180910390a46112308383836001611993565b505050565b60006002600083815260200190815260200160002060009054906101000a900473ffffffffffffffffffffffffffffffffffffffff169050919050565b61127a610de6565b73ffffffffffffffffffffffffffffffffffffffff16611298610936565b73ffffffffffffffffffffffffffffffffffffffff16146112ee576040517f08c379a00000000000000000000000000000000000000000000000000000000081526004016112e590612b13565b60405180910390fd5b565b6000600760009054906101000a900473ffffffffffffffffffffffffffffffffffffffff16905081600760006101000a81548173ffffffffffffffffffffffffffffffffffffffff021916908373ffffffffffffffffffffffffffffffffffffffff1602179055508173ffffffffffffffffffffffffffffffffffffffff168173ffffffffffffffffffffffffffffffffffffffff167f8be0079c531659141344cd1fd0a4f28419497f9722a3daafe3b4186f6b6457e060405160405180910390a35050565b6001816000016000828254019250508190555050565b600081600001549050919050565b600073ffffffffffffffffffffffffffffffffffffffff168273ffffffffffffffffffffffffffffffffffffffff1603611449576040517f08c379a000000000000000000000000000000000000000000000000000000000815260040161144090612b7f565b60405180910390fd5b6114528161194c565b15611492576040517f08c379a000000000000000000000000000000000000000000000000000000000815260040161148990612beb565b60405180910390fd5b6114a060008383600161198d565b6114a98161194c565b156114e9576040517f08c379a00000000000000000000000000000000000000000000000000000000081526004016114e090612beb565b60405180910390fd5b6001600360008473ffffffffffffffffffffffffffffffffffffffff1673ffffffffffffffffffffffffffffffffffffffff16815260200190815260200160002060008282540192505081905550816002600083815260200190815260200160002060006101000a81548173ffffffffffffffffffffffffffffffffffffffff021916908373ffffffffffffffffffffffffffffffffffffffff160217905550808273ffffffffffffffffffffffffffffffffffffffff16600073ffffffffffffffffffffffffffffffffffffffff167fddf252ad1be2c89b69c2b068fc378daa952ba7f163c4a11628f55a4df523b3ef60405160405180910390a46115f3600083836001611993565b5050565b6116008261194c565b61163f576040517f08c379a000000000000000000000000000000000000000000000000000000000815260040161163690612c7d565b60405180910390fd5b8060066000848152602001908152602001600020908161165f9190612e3f565b507ff8e1a15aba9398e019f0b49df1a4fde98ee17ae345cb5f6b5e2c27f5033e8ce78260405161168f919061209f565b60405180910390a15050565b8173ffffffffffffffffffffffffffffffffffffffff168373ffffffffffffffffffffffffffffffffffffffff1603611709576040517f08c379a000000000000000000000000000000000000000000000000000000000815260040161170090612f5d565b60405180910390fd5b80600560008573ffffffffffffffffffffffffffffffffffffffff1673ffffffffffffffffffffffffffffffffffffffff16815260200190815260200160002060008473ffffffffffffffffffffffffffffffffffffffff1673ffffffffffffffffffffffffffffffffffffffff16815260200190815260200160002060006101000a81548160ff0219169083151502179055508173ffffffffffffffffffffffffffffffffffffffff168373ffffffffffffffffffffffffffffffffffffffff167f17307eab39ab6107e8899845ad3d59bd9653f200f220920489ca2b5937696c31836040516117fa9190611e18565b60405180910390a3505050565b611812848484610f3c565b61181e84848484611999565b61185d576040517f08c379a000000000000000000000000000000000000000000000000000000000815260040161185490612fef565b60405180910390fd5b50505050565b606060405180602001604052806000815250905090565b606061188582610d9b565b600061188f611863565b905060008151116118af57604051806020016040528060008152506118da565b806118b984611b20565b6040516020016118ca9291906128ed565b6040516020818303038152906040525b915050919050565b60007f01ffc9a7000000000000000000000000000000000000000000000000000000007bffffffffffffffffffffffffffffffffffffffffffffffffffffffff1916827bffffffffffffffffffffffffffffffffffffffffffffffffffffffff1916149050919050565b60008073ffffffffffffffffffffffffffffffffffffffff1661196e83611235565b73ffffffffffffffffffffffffffffffffffffffff1614159050919050565b50505050565b50505050565b60006119ba8473ffffffffffffffffffffffffffffffffffffffff16611bee565b15611b13578373ffffffffffffffffffffffffffffffffffffffff1663150b7a026119e3610de6565b8786866040518563ffffffff1660e01b8152600401611a059493929190613053565b6020604051808303816000875af1925050508015611a4157506040513d601f19601f82011682018060405250810190611a3e91906130b4565b60015b611ac3573d8060008114611a71576040519150601f19603f3d011682016040523d82523d6000602084013e611a76565b606091505b506000815103611abb576040517f08c379a0000000000000000000000000000000000000000000000000000000008152600401611ab290612fef565b60405180910390fd5b805181602001fd5b63150b7a0260e01b7bffffffffffffffffffffffffffffffffffffffffffffffffffffffff1916817bffffffffffffffffffffffffffffffffffffffffffffffffffffffff191614915050611b18565b600190505b949350505050565b606060006001611b2f84611c11565b01905060008167ffffffffffffffff811115611b4e57611b4d61213e565b5b6040519080825280601f01601f191660200182016040528015611b805781602001600182028036833780820191505090505b509050600082602001820190505b600115611be3578080600190039150507f3031323334353637383961626364656600000000000000000000000000000000600a86061a8153600a8581611bd757611bd66130e1565b5b04945060008503611b8e575b819350505050919050565b6000808273ffffffffffffffffffffffffffffffffffffffff163b119050919050565b600080600090507a184f03e93ff9f4daa797ed6e38ed64bf6a1f0100000000000000008310611c6f577a184f03e93ff9f4daa797ed6e38ed64bf6a1f0100000000000000008381611c6557611c646130e1565b5b0492506040810190505b6d04ee2d6d415b85acef81000000008310611cac576d04ee2d6d415b85acef81000000008381611ca257611ca16130e1565b5b0492506020810190505b662386f26fc100008310611cdb57662386f26fc100008381611cd157611cd06130e1565b5b0492506010810190505b6305f5e1008310611d04576305f5e1008381611cfa57611cf96130e1565b5b0492506008810190505b6127108310611d29576127108381611d1f57611d1e6130e1565b5b0492506004810190505b60648310611d4c5760648381611d4257611d416130e1565b5b0492506002810190505b600a8310611d5b576001810190505b80915050919050565b6000604051905090565b600080fd5b600080fd5b60007fffffffff0000000000000000000000000000000000000000000000000000000082169050919050565b611dad81611d78565b8114611db857600080fd5b50565b600081359050611dca81611da4565b92915050565b600060208284031215611de657611de5611d6e565b5b6000611df484828501611dbb565b91505092915050565b60008115159050919050565b611e1281611dfd565b82525050565b6000602082019050611e2d6000830184611e09565b92915050565b600081519050919050565b600082825260208201905092915050565b60005b83811015611e6d578082015181840152602081019050611e52565b60008484015250505050565b6000601f19601f8301169050919050565b6000611e9582611e33565b611e9f8185611e3e565b9350611eaf818560208601611e4f565b611eb881611e79565b840191505092915050565b60006020820190508181036000830152611edd8184611e8a565b905092915050565b6000819050919050565b611ef881611ee5565b8114611f0357600080fd5b50565b600081359050611f1581611eef565b92915050565b600060208284031215611f3157611f30611d6e565b5b6000611f3f84828501611f06565b91505092915050565b600073ffffffffffffffffffffffffffffffffffffffff82169050919050565b6000611f7382611f48565b9050919050565b611f8381611f68565b82525050565b6000602082019050611f9e6000830184611f7a565b92915050565b611fad81611f68565b8114611fb857600080fd5b50565b600081359050611fca81611fa4565b92915050565b60008060408385031215611fe757611fe6611d6e565b5b6000611ff585828601611fbb565b925050602061200685828601611f06565b9150509250929050565b60008060006060848603121561202957612028611d6e565b5b600061203786828701611fbb565b935050602061204886828701611fbb565b925050604061205986828701611f06565b9150509250925092565b60006020828403121561207957612078611d6e565b5b600061208784828501611fbb565b91505092915050565b61209981611ee5565b82525050565b60006020820190506120b46000830184612090565b92915050565b6000819050919050565b60006120df6120da6120d584611f48565b6120ba565b611f48565b9050919050565b60006120f1826120c4565b9050919050565b6000612103826120e6565b9050919050565b612113816120f8565b82525050565b600060208201905061212e600083018461210a565b92915050565b600080fd5b600080fd5b7f4e487b7100000000000000000000000000000000000000000000000000000000600052604160045260246000fd5b61217682611e79565b810181811067ffffffffffffffff821117156121955761219461213e565b5b80604052505050565b60006121a8611d64565b90506121b4828261216d565b919050565b600067ffffffffffffffff8211156121d4576121d361213e565b5b6121dd82611e79565b9050602081019050919050565b82818337600083830152505050565b600061220c612207846121b9565b61219e565b90508281526020810184848401111561222857612227612139565b5b6122338482856121ea565b509392505050565b600082601f8301126122505761224f612134565b5b81356122608482602086016121f9565b91505092915050565b600080604083850312156122805761227f611d6e565b5b600061228e85828601611fbb565b925050602083013567ffffffffffffffff8111156122af576122ae611d73565b5b6122bb8582860161223b565b9150509250929050565b6122ce81611dfd565b81146122d957600080fd5b50565b6000813590506122eb816122c5565b92915050565b6000806040838503121561230857612307611d6e565b5b600061231685828601611fbb565b9250506020612327858286016122dc565b9150509250929050565b600067ffffffffffffffff82111561234c5761234b61213e565b5b61235582611e79565b9050602081019050919050565b600061237561237084612331565b61219e565b90508281526020810184848401111561239157612390612139565b5b61239c8482856121ea565b509392505050565b600082601f8301126123b9576123b8612134565b5b81356123c9848260208601612362565b91505092915050565b600080600080608085870312156123ec576123eb611d6e565b5b60006123fa87828801611fbb565b945050602061240b87828801611fbb565b935050604061241c87828801611f06565b925050606085013567ffffffffffffffff81111561243d5761243c611d73565b5b612449878288016123a4565b91505092959194509250565b6000806040838503121561246c5761246b611d6e565b5b600061247a85828601611fbb565b925050602061248b85828601611fbb565b9150509250929050565b7f4e487b7100000000000000000000000000000000000000000000000000000000600052602260045260246000fd5b600060028204905060018216806124dc57607f821691505b6020821081036124ef576124ee612495565b5b50919050565b7f4552433732313a20617070726f76616c20746f2063757272656e74206f776e6560008201527f7200000000000000000000000000000000000000000000000000000000000000602082015250565b6000612551602183611e3e565b915061255c826124f5565b604082019050919050565b6000602082019050818103600083015261258081612544565b9050919050565b7f4552433732313a20617070726f76652063616c6c6572206973206e6f7420746f60008201527f6b656e206f776e6572206f7220617070726f76656420666f7220616c6c000000602082015250565b60006125e3603d83611e3e565b91506125ee82612587565b604082019050919050565b60006020820190508181036000830152612612816125d6565b9050919050565b7f4552433732313a2063616c6c6572206973206e6f7420746f6b656e206f776e6560008201527f72206f7220617070726f76656400000000000000000000000000000000000000602082015250565b6000612675602d83611e3e565b915061268082612619565b604082019050919050565b600060208201905081810360008301526126a481612668565b9050919050565b7f4552433732313a20696e76616c696420746f6b656e2049440000000000000000600082015250565b60006126e1601883611e3e565b91506126ec826126ab565b602082019050919050565b60006020820190508181036000830152612710816126d4565b9050919050565b7f4552433732313a2061646472657373207a65726f206973206e6f74206120766160008201527f6c6964206f776e65720000000000000000000000000000000000000000000000602082015250565b6000612773602983611e3e565b915061277e82612717565b604082019050919050565b600060208201905081810360008301526127a281612766565b9050919050565b600082825260208201905092915050565b50565b60006127ca6000836127a9565b91506127d5826127ba565b600082019050919050565b600060c0820190506127f56000830188611f7a565b6128026020830187612090565b61280f6040830186611f7a565b61281c6060830185612090565b6128296080830184612090565b81810360a083015261283a816127bd565b90509695505050505050565b60008151905061285581611fa4565b92915050565b60006020828403121561287157612870611d6e565b5b600061287f84828501612846565b91505092915050565b600060408201905061289d6000830185612090565b6128aa6020830184611f7a565b9392505050565b600081905092915050565b60006128c782611e33565b6128d181856128b1565b93506128e1818560208601611e4f565b80840191505092915050565b60006128f982856128bc565b915061290582846128bc565b91508190509392505050565b7f4f776e61626c653a206e6577206f776e657220697320746865207a65726f206160008201527f6464726573730000000000000000000000000000000000000000000000000000602082015250565b600061296d602683611e3e565b915061297882612911565b604082019050919050565b6000602082019050818103600083015261299c81612960565b9050919050565b7f4552433732313a207472616e736665722066726f6d20696e636f72726563742060008201527f6f776e6572000000000000000000000000000000000000000000000000000000602082015250565b60006129ff602583611e3e565b9150612a0a826129a3565b604082019050919050565b60006020820190508181036000830152612a2e816129f2565b9050919050565b7f4552433732313a207472616e7366657220746f20746865207a65726f2061646460008201527f7265737300000000000000000000000000000000000000000000000000000000602082015250565b6000612a91602483611e3e565b9150612a9c82612a35565b604082019050919050565b60006020820190508181036000830152612ac081612a84565b9050919050565b7f4f776e61626c653a2063616c6c6572206973206e6f7420746865206f776e6572600082015250565b6000612afd602083611e3e565b9150612b0882612ac7565b602082019050919050565b60006020820190508181036000830152612b2c81612af0565b9050919050565b7f4552433732313a206d696e7420746f20746865207a65726f2061646472657373600082015250565b6000612b69602083611e3e565b9150612b7482612b33565b602082019050919050565b60006020820190508181036000830152612b9881612b5c565b9050919050565b7f4552433732313a20746f6b656e20616c7265616479206d696e74656400000000600082015250565b6000612bd5601c83611e3e565b9150612be082612b9f565b602082019050919050565b60006020820190508181036000830152612c0481612bc8565b9050919050565b7f45524337323155524953746f726167653a2055524920736574206f66206e6f6e60008201527f6578697374656e7420746f6b656e000000000000000000000000000000000000602082015250565b6000612c67602e83611e3e565b9150612c7282612c0b565b604082019050919050565b60006020820190508181036000830152612c9681612c5a565b9050919050565b60008190508160005260206000209050919050565b60006020601f8301049050919050565b600082821b905092915050565b600060088302612cff7fffffffffffffffffffffffffffffffffffffffffffffffffffffffffffffffff82612cc2565b612d098683612cc2565b95508019841693508086168417925050509392505050565b6000612d3c612d37612d3284611ee5565b6120ba565b611ee5565b9050919050565b6000819050919050565b612d5683612d21565b612d6a612d6282612d43565b848454612ccf565b825550505050565b600090565b612d7f612d72565b612d8a818484612d4d565b505050565b5b81811015612dae57612da3600082612d77565b600181019050612d90565b5050565b601f821115612df357612dc481612c9d565b612dcd84612cb2565b81016020851015612ddc578190505b612df0612de885612cb2565b830182612d8f565b50505b505050565b600082821c905092915050565b6000612e1660001984600802612df8565b1980831691505092915050565b6000612e2f8383612e05565b9150826002028217905092915050565b612e4882611e33565b67ffffffffffffffff811115612e6157612e6061213e565b5b612e6b82546124c4565b612e76828285612db2565b600060209050601f831160018114612ea95760008415612e97578287015190505b612ea18582612e23565b865550612f09565b601f198416612eb786612c9d565b60005b82811015612edf57848901518255600182019150602085019450602081019050612eba565b86831015612efc5784890151612ef8601f891682612e05565b8355505b6001600288020188555050505b505050505050565b7f4552433732313a20617070726f766520746f2063616c6c657200000000000000600082015250565b6000612f47601983611e3e565b9150612f5282612f11565b602082019050919050565b60006020820190508181036000830152612f7681612f3a565b9050919050565b7f4552433732313a207472616e7366657220746f206e6f6e20455243373231526560008201527f63656976657220696d706c656d656e7465720000000000000000000000000000602082015250565b6000612fd9603283611e3e565b9150612fe482612f7d565b604082019050919050565b6000602082019050818103600083015261300881612fcc565b9050919050565b600081519050919050565b60006130258261300f565b61302f81856127a9565b935061303f818560208601611e4f565b61304881611e79565b840191505092915050565b60006080820190506130686000830187611f7a565b6130756020830186611f7a565b6130826040830185612090565b8181036060830152613094818461301a565b905095945050505050565b6000815190506130ae81611da4565b92915050565b6000602082840312156130ca576130c9611d6e565b5b60006130d88482850161309f565b91505092915050565b7f4e487b7100000000000000000000000000000000000000000000000000000000600052601260045260246000fdfea2646970667358221220819cbb8266f35145f0ddd73fad4773a72a5e43added44effc825996c46a100c064736f6c63430008130033",
  "linkReferences": {},
  "deployedLinkReferences": {}
}